{
  "fileName": "ContractA.sol",
  "contractName": "PausableUpgradeSafe",
  "source": "pragma solidity ^0.6.0;\n/*\n * @dev Provides information about the current execution context, including the\n * sender of the transaction and its data. While these are generally available\n * via msg.sender and msg.data, they should not be accessed in such a direct\n * manner, since when dealing with GSN meta-transactions the account sending and\n * paying for execution may not be the actual sender (as far as an application\n * is concerned).\n *\n * This contract is only required for intermediate, library-like contracts.\n */\ncontract ContextUpgradeSafe is Initializable {\n    // Empty internal constructor, to prevent people from mistakenly deploying\n    // an instance of this contract, which should be used via inheritance.\n\n    function __Context_init() internal initializer {\n        __Context_init_unchained();\n    }\n\n    function __Context_init_unchained() internal initializer {\n\n\n    }\n\n\n    function _msgSender() internal view virtual returns (address payable) {\n        return msg.sender;\n    }\n\n    function _msgData() internal view virtual returns (bytes memory) {\n        this; // silence state mutability warning without generating bytecode - see https://github.com/ethereum/solidity/issues/2691\n        return msg.data;\n    }\n\n    uint256[50] private __gap;\n}\n\n\n/**\n * @dev Contract module which allows children to implement an emergency stop\n * mechanism that can be triggered by an authorized account.\n *\n * This module is used through inheritance. It will make available the\n * modifiers `whenNotPaused` and `whenPaused`, which can be applied to\n * the functions of your contract. Note that they will not be pausable by\n * simply including this module, only once the modifiers are put in place.\n */\ncontract PausableUpgradeSafe is Initializable, ContextUpgradeSafe {\n    /**\n     * @dev Emitted when the pause is triggered by `account`.\n     */\n    event Paused(address account);\n\n    /**\n     * @dev Emitted when the pause is lifted by `account`.\n     */\n    event Unpaused(address account);\n\n    bool private _paused;\n\n    /**\n     * @dev Initializes the contract in unpaused state.\n     */\n\n    function __Pausable_init() internal initializer {\n        __Context_init_unchained();\n        __Pausable_init_unchained();\n    }\n\n    function __Pausable_init_unchained() internal initializer {\n\n\n        _paused = false;\n\n    }\n\n\n    /**\n     * @dev Returns true if the contract is paused, and false otherwise.\n     */\n    function paused() public view returns (bool) {\n        return _paused;\n    }\n\n    /**\n     * @dev Modifier to make a function callable only when the contract is not paused.\n     */\n    modifier whenNotPaused() {\n        require(!_paused, \"Pausable: paused\");\n        _;\n    }\n\n    /**\n     * @dev Modifier to make a function callable only when the contract is paused.\n     */\n    modifier whenPaused() {\n        require(_paused, \"Pausable: not paused\");\n        _;\n    }\n\n    /**\n     * @dev Triggers stopped state.\n     */\n    function _pause() public virtual whenNotPaused {\n        _paused = true;\n        emit Paused(_msgSender());\n    }\n\n    /**\n     * @dev Returns to normal state.\n     */\n    function _unpause() public virtual whenPaused {\n        _paused = false;\n        emit Unpaused(_msgSender());\n    }\n\n    uint256[49] private __gap;\n}\n\nimport './Token.sol';\ncontract ContractA is Initializable,Ownable,PausableUpgradeSafe{\n    using SafeMath for uint256;\n    Token public _token;\n    mapping(address=>uint256) _balance;\n    uint timeout;\n    uint timelimit;\n    function initialize(Token addr) public initializer{\n        _token=addr;\n    }\n    function setAddress(Token addr) public{\n        _token=addr;\n    }\n    function deposit(address owner,uint256 _tokens) public  whenNotPaused{\n        _token.approve(address(this),_tokens);\n        _token.transferFrom(owner,address(this),_tokens);\n        _balance[owner]=_balance[owner].safeAdd(_tokens);\n        timeout=block.timestamp;\n    }\n    function timeOut() public view returns(uint){\n        return timeout;\n    }\n    function withdraw(address owner) public whenNotPaused{\n        require(block.timestamp>=timeout + timelimit && timeout!=0,\"time not expired\");\n        _token.transferFrom(address(this),owner,_balance[owner]);\n        _balance[owner]=_balance[owner].safeSub(getBalance1(owner));\n    }\n    function getBalance(address owner) public view returns(uint256){\n        return _token.balanceOf(owner);\n    }\n    function getBalance1(address owner) public view returns(uint256){\n        return _balance[owner];\n    }\n    function getAddress() public view returns(address){\n        return address(this);\n    }\n    function getTokenAddress() public view returns(address){\n        return address(_token);\n    }\n    function getCurrentTime() public view returns(uint){\n        return block.timestamp;\n    }\n    function updateTime(uint secs) public onlyOwner returns(uint){\n        timelimit=secs;\n    }\n}",
  "sourcePath": "contracts/ContractA.sol",
  "abi": [
    {
      "anonymous": false,
      "inputs": [
        {
          "indexed": false,
          "internalType": "address",
          "name": "account",
          "type": "address"
        }
      ],
      "name": "Paused",
      "type": "event"
    },
    {
      "anonymous": false,
      "inputs": [
        {
          "indexed": false,
          "internalType": "address",
          "name": "account",
          "type": "address"
        }
      ],
      "name": "Unpaused",
      "type": "event"
    },
    {
      "inputs": [],
      "name": "_pause",
      "outputs": [],
      "stateMutability": "nonpayable",
      "type": "function"
    },
    {
      "inputs": [],
      "name": "_unpause",
      "outputs": [],
      "stateMutability": "nonpayable",
      "type": "function"
    },
    {
      "inputs": [],
      "name": "paused",
      "outputs": [
        {
          "internalType": "bool",
          "name": "",
          "type": "bool"
        }
      ],
      "stateMutability": "view",
      "type": "function"
    }
  ],
  "bytecode": "0x608060405234801561001057600080fd5b506102b6806100206000396000f3fe608060405234801561001057600080fd5b50600436106100415760003560e01c8063320b2ad9146100465780635c975abb14610050578063fc8234cb14610070575b600080fd5b61004e61007a565b005b61005861016e565b60405180821515815260200191505060405180910390f35b610078610185565b005b606560009054906101000a900460ff16156100fd576040517f08c379a00000000000000000000000000000000000000000000000000000000081526004018080602001828103825260108152602001807f5061757361626c653a207061757365640000000000000000000000000000000081525060200191505060405180910390fd5b6001606560006101000a81548160ff0219169083151502179055507f62e78cea01bee320cd4e420270b5ea74000d11b0c9f74754ebdbfc544b05a258610141610278565b604051808273ffffffffffffffffffffffffffffffffffffffff16815260200191505060405180910390a1565b6000606560009054906101000a900460ff16905090565b606560009054906101000a900460ff16610207576040517f08c379a00000000000000000000000000000000000000000000000000000000081526004018080602001828103825260148152602001807f5061757361626c653a206e6f742070617573656400000000000000000000000081525060200191505060405180910390fd5b6000606560006101000a81548160ff0219169083151502179055507f5db9ee0a495bf2e6ff9c91a7834c1ba4fdd244a5e8aa4e537bd38aeae4b073aa61024b610278565b604051808273ffffffffffffffffffffffffffffffffffffffff16815260200191505060405180910390a1565b60003390509056fea26469706673582212208a8da47682e4ebfb9f8343abab91326b816045844836c1db2a411da02638247364736f6c634300060c0033",
  "compiler": {
    "name": "solc",
    "version": "0.6.12+commit.27d51765.Emscripten.clang",
    "optimizer": {
      "enabled": false,
      "runs": 200
    },
    "evmVersion": "petersburg"
  }
}